{
  "_format": "hh-sol-artifact-1",
  "contractName": "HWFarm",
  "sourceName": "contracts/HWFarm.sol",
  "abi": [
    {
      "inputs": [
        {
          "internalType": "contract IERC20",
          "name": "_daiToken",
          "type": "address"
        },
        {
          "internalType": "contract HWToken",
          "name": "_hwToken",
          "type": "address"
        }
      ],
      "stateMutability": "nonpayable",
      "type": "constructor"
    },
    {
      "anonymous": false,
      "inputs": [
        {
          "indexed": true,
          "internalType": "address",
          "name": "from",
          "type": "address"
        },
        {
          "indexed": false,
          "internalType": "uint256",
          "name": "amount",
          "type": "uint256"
        }
      ],
      "name": "Stake",
      "type": "event"
    },
    {
      "anonymous": false,
      "inputs": [
        {
          "indexed": true,
          "internalType": "address",
          "name": "from",
          "type": "address"
        },
        {
          "indexed": false,
          "internalType": "uint256",
          "name": "amount",
          "type": "uint256"
        }
      ],
      "name": "Unstake",
      "type": "event"
    },
    {
      "anonymous": false,
      "inputs": [
        {
          "indexed": true,
          "internalType": "address",
          "name": "to",
          "type": "address"
        },
        {
          "indexed": false,
          "internalType": "uint256",
          "name": "amount",
          "type": "uint256"
        }
      ],
      "name": "YieldWithdraw",
      "type": "event"
    },
    {
      "inputs": [
        {
          "internalType": "address",
          "name": "user",
          "type": "address"
        }
      ],
      "name": "calculateYieldTime",
      "outputs": [
        {
          "internalType": "uint256",
          "name": "",
          "type": "uint256"
        }
      ],
      "stateMutability": "view",
      "type": "function"
    },
    {
      "inputs": [
        {
          "internalType": "address",
          "name": "user",
          "type": "address"
        }
      ],
      "name": "calculateYieldTotal",
      "outputs": [
        {
          "internalType": "uint256",
          "name": "",
          "type": "uint256"
        }
      ],
      "stateMutability": "view",
      "type": "function"
    },
    {
      "inputs": [],
      "name": "daiToken",
      "outputs": [
        {
          "internalType": "contract IERC20",
          "name": "",
          "type": "address"
        }
      ],
      "stateMutability": "view",
      "type": "function"
    },
    {
      "inputs": [
        {
          "internalType": "address",
          "name": "",
          "type": "address"
        }
      ],
      "name": "hwBalance",
      "outputs": [
        {
          "internalType": "uint256",
          "name": "",
          "type": "uint256"
        }
      ],
      "stateMutability": "view",
      "type": "function"
    },
    {
      "inputs": [],
      "name": "hwToken",
      "outputs": [
        {
          "internalType": "contract HWToken",
          "name": "",
          "type": "address"
        }
      ],
      "stateMutability": "view",
      "type": "function"
    },
    {
      "inputs": [
        {
          "internalType": "address",
          "name": "",
          "type": "address"
        }
      ],
      "name": "isStaking",
      "outputs": [
        {
          "internalType": "bool",
          "name": "",
          "type": "bool"
        }
      ],
      "stateMutability": "view",
      "type": "function"
    },
    {
      "inputs": [],
      "name": "name",
      "outputs": [
        {
          "internalType": "string",
          "name": "",
          "type": "string"
        }
      ],
      "stateMutability": "view",
      "type": "function"
    },
    {
      "inputs": [
        {
          "internalType": "uint256",
          "name": "amount",
          "type": "uint256"
        }
      ],
      "name": "stake",
      "outputs": [],
      "stateMutability": "nonpayable",
      "type": "function"
    },
    {
      "inputs": [
        {
          "internalType": "address",
          "name": "",
          "type": "address"
        }
      ],
      "name": "stakingBalance",
      "outputs": [
        {
          "internalType": "uint256",
          "name": "",
          "type": "uint256"
        }
      ],
      "stateMutability": "view",
      "type": "function"
    },
    {
      "inputs": [
        {
          "internalType": "address",
          "name": "",
          "type": "address"
        }
      ],
      "name": "startTime",
      "outputs": [
        {
          "internalType": "uint256",
          "name": "",
          "type": "uint256"
        }
      ],
      "stateMutability": "view",
      "type": "function"
    },
    {
      "inputs": [
        {
          "internalType": "uint256",
          "name": "amount",
          "type": "uint256"
        }
      ],
      "name": "unstake",
      "outputs": [],
      "stateMutability": "nonpayable",
      "type": "function"
    },
    {
      "inputs": [],
      "name": "withdrawYield",
      "outputs": [],
      "stateMutability": "nonpayable",
      "type": "function"
    }
  ],
  "bytecode": "0x60806040526040518060400160405280600781526020017f4857204661726d0000000000000000000000000000000000000000000000000081525060049080519060200190620000519291906200010f565b503480156200005f57600080fd5b50604051620018c7380380620018c78339818101604052810190620000859190620001ed565b81600560006101000a81548173ffffffffffffffffffffffffffffffffffffffff021916908373ffffffffffffffffffffffffffffffffffffffff16021790555080600660006101000a81548173ffffffffffffffffffffffffffffffffffffffff021916908373ffffffffffffffffffffffffffffffffffffffff160217905550505062000323565b8280546200011d906200028a565b90600052602060002090601f0160209004810192826200014157600085556200018d565b82601f106200015c57805160ff19168380011785556200018d565b828001600101855582156200018d579182015b828111156200018c5782518255916020019190600101906200016f565b5b5090506200019c9190620001a0565b5090565b5b80821115620001bb576000816000905550600101620001a1565b5090565b600081519050620001d081620002ef565b92915050565b600081519050620001e78162000309565b92915050565b600080604083850312156200020157600080fd5b60006200021185828601620001d6565b92505060206200022485828601620001bf565b9150509250929050565b60006200023b826200026a565b9050919050565b60006200024f826200022e565b9050919050565b600062000263826200022e565b9050919050565b600073ffffffffffffffffffffffffffffffffffffffff82169050919050565b60006002820490506001821680620002a357607f821691505b60208210811415620002ba57620002b9620002c0565b5b50919050565b7f4e487b7100000000000000000000000000000000000000000000000000000000600052602260045260246000fd5b620002fa8162000242565b81146200030657600080fd5b50565b620003148162000256565b81146200032057600080fd5b50565b61159480620003336000396000f3fe608060405234801561001057600080fd5b50600436106100b45760003560e01c8063980d611611610071578063980d6116146101b3578063a694fc3a146101e3578063be22f546146101ff578063e507a8a41461021d578063ee146c6714610227578063fd06b38014610257576100b4565b806306872661146100b957806306fdde03146100e95780632e17de781461010757806345bc78ab146101235780636e1dc66e146101535780636f49712b14610183575b600080fd5b6100d360048036038101906100ce9190610ee0565b610275565b6040516100e091906111bf565b60405180910390f35b6100f161031b565b6040516100fe919061113d565b60405180910390f35b610121600480360381019061011c9190610f32565b6103a9565b005b61013d60048036038101906101389190610ee0565b610731565b60405161014a91906111bf565b60405180910390f35b61016d60048036038101906101689190610ee0565b610749565b60405161017a91906111bf565b60405180910390f35b61019d60048036038101906101989190610ee0565b610761565b6040516101aa91906110ec565b60405180910390f35b6101cd60048036038101906101c89190610ee0565b610781565b6040516101da91906111bf565b60405180910390f35b6101fd60048036038101906101f89190610f32565b6107e0565b005b610207610b8a565b6040516102149190611122565b60405180910390f35b610225610bb0565b005b610241600480360381019061023c9190610ee0565b610e4e565b60405161024e91906111bf565b60405180910390f35b61025f610e66565b60405161026c9190611107565b60405180910390f35b600080670de0b6b3a764000061028a84610781565b610294919061127d565b90506000620151809050600081836102ac919061124c565b90506000670de0b6b3a7640000826000808973ffffffffffffffffffffffffffffffffffffffff1673ffffffffffffffffffffffffffffffffffffffff16815260200190815260200160002054610303919061127d565b61030d919061124c565b905080945050505050919050565b60048054610328906113ce565b80601f0160208091040260200160405190810160405280929190818152602001828054610354906113ce565b80156103a15780601f10610376576101008083540402835291602001916103a1565b820191906000526020600020905b81548152906001019060200180831161038457829003601f168201915b505050505081565b600180156103f55750806000803373ffffffffffffffffffffffffffffffffffffffff1673ffffffffffffffffffffffffffffffffffffffff1681526020019081526020016000205410155b600160003373ffffffffffffffffffffffffffffffffffffffff1673ffffffffffffffffffffffffffffffffffffffff16815260200190815260200160002060006101000a81548160ff0219169083151502179055610489576040517f08c379a00000000000000000000000000000000000000000000000000000000081526004016104809061119f565b60405180910390fd5b600061049433610275565b905042600260003373ffffffffffffffffffffffffffffffffffffffff1673ffffffffffffffffffffffffffffffffffffffff16815260200190815260200160002081905550600082905060009250806000803373ffffffffffffffffffffffffffffffffffffffff1673ffffffffffffffffffffffffffffffffffffffff168152602001908152602001600020600082825461053191906112d7565b92505081905550600560009054906101000a900473ffffffffffffffffffffffffffffffffffffffff1673ffffffffffffffffffffffffffffffffffffffff1663a9059cbb33836040518363ffffffff1660e01b81526004016105959291906110c3565b602060405180830381600087803b1580156105af57600080fd5b505af11580156105c3573d6000803e3d6000fd5b505050506040513d601f19601f820116820180604052508101906105e79190610f09565b5081600360003373ffffffffffffffffffffffffffffffffffffffff1673ffffffffffffffffffffffffffffffffffffffff168152602001908152602001600020600082825461063791906111f6565b9250508190555060008060003373ffffffffffffffffffffffffffffffffffffffff1673ffffffffffffffffffffffffffffffffffffffff1681526020019081526020016000205414156106de576000600160003373ffffffffffffffffffffffffffffffffffffffff1673ffffffffffffffffffffffffffffffffffffffff16815260200190815260200160002060006101000a81548160ff0219169083151502179055505b3373ffffffffffffffffffffffffffffffffffffffff167f85082129d87b2fe11527cb1b3b7a520aeb5aa6913f88a3d8757fe40d1db02fdd8460405161072491906111bf565b60405180910390a2505050565b60006020528060005260406000206000915090505481565b60026020528060005260406000206000915090505481565b60016020528060005260406000206000915054906101000a900460ff1681565b6000804290506000600260008573ffffffffffffffffffffffffffffffffffffffff1673ffffffffffffffffffffffffffffffffffffffff16815260200190815260200160002054826107d491906112d7565b90508092505050919050565b60008111801561089a575080600560009054906101000a900473ffffffffffffffffffffffffffffffffffffffff1673ffffffffffffffffffffffffffffffffffffffff166370a08231336040518263ffffffff1660e01b81526004016108479190611071565b60206040518083038186803b15801561085f57600080fd5b505afa158015610873573d6000803e3d6000fd5b505050506040513d601f19601f820116820180604052508101906108979190610f5b565b10155b6108d9576040517f08c379a00000000000000000000000000000000000000000000000000000000081526004016108d09061117f565b60405180910390fd5b60011515600160003373ffffffffffffffffffffffffffffffffffffffff1673ffffffffffffffffffffffffffffffffffffffff16815260200190815260200160002060009054906101000a900460ff161515141561099757600061093d33610275565b905080600360003373ffffffffffffffffffffffffffffffffffffffff1673ffffffffffffffffffffffffffffffffffffffff168152602001908152602001600020600082825461098e91906111f6565b92505081905550505b600560009054906101000a900473ffffffffffffffffffffffffffffffffffffffff1673ffffffffffffffffffffffffffffffffffffffff166323b872dd3330846040518463ffffffff1660e01b81526004016109f69392919061108c565b602060405180830381600087803b158015610a1057600080fd5b505af1158015610a24573d6000803e3d6000fd5b505050506040513d601f19601f82011682018060405250810190610a489190610f09565b50806000803373ffffffffffffffffffffffffffffffffffffffff1673ffffffffffffffffffffffffffffffffffffffff1681526020019081526020016000206000828254610a9791906111f6565b9250508190555042600260003373ffffffffffffffffffffffffffffffffffffffff1673ffffffffffffffffffffffffffffffffffffffff1681526020019081526020016000208190555060018060003373ffffffffffffffffffffffffffffffffffffffff1673ffffffffffffffffffffffffffffffffffffffff16815260200190815260200160002060006101000a81548160ff0219169083151502179055503373ffffffffffffffffffffffffffffffffffffffff167febedb8b3c678666e7f36970bc8f57abf6d8fa2e828c0da91ea5b75bf68ed101a82604051610b7f91906111bf565b60405180910390a250565b600560009054906101000a900473ffffffffffffffffffffffffffffffffffffffff1681565b6000610bbb33610275565b90506000811180610c0b57506000600360003373ffffffffffffffffffffffffffffffffffffffff1673ffffffffffffffffffffffffffffffffffffffff16815260200190815260200160002054115b610c4a576040517f08c379a0000000000000000000000000000000000000000000000000000000008152600401610c419061115f565b60405180910390fd5b6000600360003373ffffffffffffffffffffffffffffffffffffffff1673ffffffffffffffffffffffffffffffffffffffff1681526020019081526020016000205414610d2a576000600360003373ffffffffffffffffffffffffffffffffffffffff1673ffffffffffffffffffffffffffffffffffffffff1681526020019081526020016000205490506000600360003373ffffffffffffffffffffffffffffffffffffffff1673ffffffffffffffffffffffffffffffffffffffff168152602001908152602001600020819055508082610d2691906111f6565b9150505b42600260003373ffffffffffffffffffffffffffffffffffffffff1673ffffffffffffffffffffffffffffffffffffffff16815260200190815260200160002081905550600660009054906101000a900473ffffffffffffffffffffffffffffffffffffffff1673ffffffffffffffffffffffffffffffffffffffff166340c10f1933836040518363ffffffff1660e01b8152600401610dcb9291906110c3565b600060405180830381600087803b158015610de557600080fd5b505af1158015610df9573d6000803e3d6000fd5b505050503373ffffffffffffffffffffffffffffffffffffffff167f92044e3943309ee5950e21bc7421d02c1df75f0df33c0d97c1143687b49a4c5782604051610e4391906111bf565b60405180910390a250565b60036020528060005260406000206000915090505481565b600660009054906101000a900473ffffffffffffffffffffffffffffffffffffffff1681565b600081359050610e9b81611519565b92915050565b600081519050610eb081611530565b92915050565b600081359050610ec581611547565b92915050565b600081519050610eda81611547565b92915050565b600060208284031215610ef257600080fd5b6000610f0084828501610e8c565b91505092915050565b600060208284031215610f1b57600080fd5b6000610f2984828501610ea1565b91505092915050565b600060208284031215610f4457600080fd5b6000610f5284828501610eb6565b91505092915050565b600060208284031215610f6d57600080fd5b6000610f7b84828501610ecb565b91505092915050565b610f8d8161130b565b82525050565b610f9c8161131d565b82525050565b610fab81611353565b82525050565b610fba81611377565b82525050565b6000610fcb826111da565b610fd581856111e5565b9350610fe581856020860161139b565b610fee8161148d565b840191505092915050565b60006110066013836111e5565b91506110118261149e565b602082019050919050565b6000611029601c836111e5565b9150611034826114c7565b602082019050919050565b600061104c6012836111e5565b9150611057826114f0565b602082019050919050565b61106b81611349565b82525050565b60006020820190506110866000830184610f84565b92915050565b60006060820190506110a16000830186610f84565b6110ae6020830185610f84565b6110bb6040830184611062565b949350505050565b60006040820190506110d86000830185610f84565b6110e56020830184611062565b9392505050565b60006020820190506111016000830184610f93565b92915050565b600060208201905061111c6000830184610fa2565b92915050565b60006020820190506111376000830184610fb1565b92915050565b600060208201905081810360008301526111578184610fc0565b905092915050565b6000602082019050818103600083015261117881610ff9565b9050919050565b600060208201905081810360008301526111988161101c565b9050919050565b600060208201905081810360008301526111b88161103f565b9050919050565b60006020820190506111d46000830184611062565b92915050565b600081519050919050565b600082825260208201905092915050565b600061120182611349565b915061120c83611349565b9250827fffffffffffffffffffffffffffffffffffffffffffffffffffffffffffffffff0382111561124157611240611400565b5b828201905092915050565b600061125782611349565b915061126283611349565b9250826112725761127161142f565b5b828204905092915050565b600061128882611349565b915061129383611349565b9250817fffffffffffffffffffffffffffffffffffffffffffffffffffffffffffffffff04831182151516156112cc576112cb611400565b5b828202905092915050565b60006112e282611349565b91506112ed83611349565b925082821015611300576112ff611400565b5b828203905092915050565b600061131682611329565b9050919050565b60008115159050919050565b600073ffffffffffffffffffffffffffffffffffffffff82169050919050565b6000819050919050565b600061135e82611365565b9050919050565b600061137082611329565b9050919050565b600061138282611389565b9050919050565b600061139482611329565b9050919050565b60005b838110156113b957808201518184015260208101905061139e565b838111156113c8576000848401525b50505050565b600060028204905060018216806113e657607f821691505b602082108114156113fa576113f961145e565b5b50919050565b7f4e487b7100000000000000000000000000000000000000000000000000000000600052601160045260246000fd5b7f4e487b7100000000000000000000000000000000000000000000000000000000600052601260045260246000fd5b7f4e487b7100000000000000000000000000000000000000000000000000000000600052602260045260246000fd5b6000601f19601f8301169050919050565b7f4e6f7468696e6720746f20776974686472617700000000000000000000000000600082015250565b7f596f752063616e6e6f74207374616b65207a65726f20746f6b656e7300000000600082015250565b7f4e6f7468696e6720746f20756e7374616b650000000000000000000000000000600082015250565b6115228161130b565b811461152d57600080fd5b50565b6115398161131d565b811461154457600080fd5b50565b61155081611349565b811461155b57600080fd5b5056fea264697066735822122038feb88cbd9c185f4d766b565d3f98ebdc2217f4fa54af56f655d30dbbfa6ade64736f6c63430008040033",
  "linkReferences": {},
  "deployedLinkReferences": {}
}